:020000020000FC
:1000000008E00EBF0FE50DBF40E0E2E0D0E0C0E049
:100010000FEF10EC0E94570007BB0ABB04BB11BBDB
:10002000442742BB0E945B00989420B32030C1F368
:100030009894322F277FE1F098943B7F29F0F0CFFE
:1000400070617BBBEDCFFFCFC395CA305CF4889461
:10005000D41FDA3054F48894E41F0E94570040E41F
:1000600042BBDECFC0E00894F3CFD0E00894F4CFD9
:100070007F7E7BBB8894C150CF77CA3094F488943C
:10008000D040DF77DA3084F48894E040DD2329F033
:100090000E94570040E842BBC3CFCC23C9F7C1F749
:1000A000CFCFC9E00894ECCFD9E00894EECFEBBBFA
:0E00B000D8BBC5BB08956FE06A95F1F70895BF
:00000001FF
